:10009C00A2B49202E430020104FFFEA2B29202E486
:1000AC0030020104FFEEC3332FFEA2B39202E43000
:0A00BC00020104FFEEC3332FFF2200
:1000C6008E148F15E4F516F517E516B51405E51724
:0500D600B515005011FA
:1000DB00300101221200ED0517E51770E7051680B8
:0200EB00E3220E
:1000ED00758A00758CDCD28C308DFDC28CC28D2250
:1000FD00758A48758CFFD28C308DFDC28CC28D22D5
:10010D007F381201397F381201397F381201397F5A
:0A011D00061201397F0C120139228D
:0B012700D287D292C290D2913087069E
:07013200C292D29280F72275
:0E0139008F80C290C291D292C29212012722F0
:0E0147008F80D290C291D292C29212012722D2
:10015500EBFDEAFCE9F8EDFBECFAE8F912000360C7
:1001650015EDFBECFAE8F908E870020CEC12000357
:07017500FF12014780E022A8
:08017C00EF1460041460092275
:10018400ED247FFF12013922ED24BFFF1201392231
:040194001200ED2246
:090198007F011201391200ED2271
:1003350075A00075892175D80075D90075F9007506
:10034500E900D2DE85D8D8E4FE7F641200C612012A
:100355000D7F017D0112017C7B057A0179A11201D6
:10036500557F027D0112017C7B057A0179B012016E
:1003750055E4FE7F641200C67F017D0112017C7B7E
:10038500057A0179C01201557F027D0112017C7B3E
:10039500057A0179D1120155E4FE7F641200C67F0A
:1003A500017D0112017C7B057A0179C01201557F1F
:1003B500027D0112017C7B057A0179E2120155E487
:1003C500FE7F641200C67F027D0112017C7B057AE7
:1003D5000179F3120155309304D2A580F9C2A5E441
:1003E500FE7F321200C67F027D0112017C7B057AF9
:1003F500027904120155309504D2A580F9C2A5E40D
:10040500FE7F321200C67F027D0112017C7B057AD8
:10041500027915120155309604D2A580F9C2A5E4DA
:10042500FE7F321200C67F027D0112017C7B057AB8
:1004350002792612015520B504D2A580F9D2AED293
:10044500AF7F027D0112017CE4FE7F321200C67B84
:10045500057A0279371201557F027D0D12017C1252
:10046500009CEF2430FF12014712009CBF07FAC21F
:10047500A07F027D0112017C7B057A027948120179
:10048500557E077FD01200C6D2A012009CBF06FA87
:10049500C2A07F027D0112017C7B057A02794C1294
:1004A50001557E077FD01200C6D2A012009CBF0462
:1004B500FAC2A07F027D0112017C7B057A02795088
:1004C5001201557E077FD01200C6D2A012009CEF04
:1004D50070FAC2A07F027D0112017C7B057A027948
:1004E500541201557E077FD01200C6D2A112009C7E
:1004F500BF06FAC2A17F027D0112017C7B057A024B
:1005050079501201557E077FD01200C6D2A1120084
:100515009CBF07FAC2A17F027D0112017C7B057A8F
:1005250002794C1201557E077FD01200C6E4FE7F8A
:10053500641200C6E4F510751101851012851113BA
:08054500D2002000030208E1CE
:10054D00AA10AB11EABA000280030208DEEB24FF09
:10055D00B41C0040030208DEFA232A90056C7302D6
:10056D0005C20205F602060F020624020644020623
:10057D005602067902068E0206AE0206C50206EC8A
:10058D0002070C02072302073702075702077702FB
:10059D0007890207B00207D70207FB0208100208FD
:1005AD003002084C02087A02088F0208AF0208CB0D
:0505BD000205E180854C
:0E05C20012009CBF0708E4F5127513028008B2
:1005D000D2A1E4F51275131CE4F51075111B020588
:1005E0004712009CBF0706E4F512751302E4F510EC
:1005F00075111B020547C2A1E4FE7F641200C6D23A
:10060000A0E4F512751303F51075111B02054712CE
:10061000009CBF0606E4F512751304E4F51075118D
:100620001B020547C2A0E4F512751305F5107511FC
:100630001B7F027D0112017C7B057A027958120131
:1006400055020547209406E4F512751306E4F510EB
:1006500075111B0205477F027D0112017C7B057A23
:1006600002796912015575DA11D2A0E4F5127513F9
:1006700007F51075111B02054712009CEF7006E488
:10068000F512751308E4F51075111B020547C2A099
:100690007F027D0112017C7B057A02797A12015575
:1006A000E4F512751309F51075111B020547D2A662
:1006B0007E077FD01200C6E4F51275130AF5107597
:1006C000111B0205477F027D0112017C7B057A0226
:1006D000798B120155C2A67E077FD01200C6E4F5C1
:1006E0001275130BF51075111B0205477F027D0172
:1006F00012017C7B057A02799C120155D2A1E4F5A6
:100700001275130CF51075111B02054712009CBFE2
:020710000608D9
:10071200E4F51275130DC2A1E4F51075111B020563
:1007220047C2A1C2CAC2ADE4F51275130EF5107527
:10073200111B0205477F027D0112017C7B057A02B3
:1007420079AD120155D2A6E4F51275130FF51075A5
:10075200111B020547D2A47F027D0112017C7B0599
:100762007A0279BE120155E4F512751310F510756F
:10077200111B02054720B506E4F512751311E4F5C5
:100782001075111B0205477F027D0112017C7B055A
:100792007A0279CF120155D2A27E037FE81200C6F7
:1007A200E4F512751312F51075111B020547D2A755
:1007B2007F027D0112017C7B057A0279E0120155EC
:1007C2007E017FF41200C6E4F512751313F510755D
:1007D200111B020547C2A7D2A3D2A07F027D01123C
:1007E200017C7B057A0279F1120155E4F512751349
:1007F20014F51075111B02054712009CEF7006E4F8
:10080200F512751315E4F51075111B020547C2A008
:10081200E4F512751316F51075111B7F027D011296
:10082200017C7B057A037902120155020547309556
:0108320010B5
:10083300E4FE7F321200C6309506E4F512751317F5
:10084300E4F51075111B0205477F027D0112017C3F
:100853007B057A037913120155C2A4C2A2C2A7C2AF
:10086300A6C2A3C2A0C2A5D2A1E4F512751318F5BE
:100873001075111B02054712009CBF0706E4F51211
:10088300751319E4F51075111B020547C2A1E4F5B0
:100893001275131AF51075111B7F027D0112017C6D
:0F08A3007B057A03792412015502054720961030
:1008B200E4FE7F321200C6209606E4F51275130498
:0C08C200E4F51075111B02054730010A17
:1008CE00E4F510751117C2018006851210851311FB
:0408DE0002054722A6
:0D08E200C0E0C0D075D00830D81030000D37
:1008EF00C2D875DA00D201E4F51075111BD0D0D043
:0208FF00E032E5
:04002E000810006452
:030033000208E2DE
:1001A1002020455344472D50442D494343430020CB
:1001B100424F494C455220434F4E54524F4C002020
:1001C100424F494C455220434F4E54524F4C200010
:1001D10042792053616A6A61642053452D5044205D
:1001E10000436865636B696E672044656661756C81
:1001F10074004572723A2053544152543D4F4E207F
:100201002020004572723A2048492054454D503D06
:100211004F4E20004572723A204C4F2054454D50AC
:100221003D4F4E20004572723A204D472056414CB9
:1002310056453D4F4E0020202044616D706572206F
:100241003D2020202020004F46460030252000354B
:100251002520003130300057616974696E67207460
:100261006F205374617274002050757267696E67F4
:100271002E20202020202020002050757267696EDA
:10028100672E2E20202020202000205075726769C3
:100291006E672E2E2E2020202020002049676E69B7
:1002A10074696E6720202020202020002049676E7D
:1002B1006974696E672E2020202020200020496764
:1002C1006E6974696E672E2E20202020200020493F
:1002D100676E6974696E672E2E2E20202020002003
:1002E10049676E6974696E672E2E2E2E20202000BC
:1002F100204275726E696E672E2E2E2020202020DE
:10030100002052756E6E696E672E2E2E20202020E1
:10031100200020436C6F73696E672E2E2E202020E3
:1003210020200020436C6F7365642121212020204F
:040331002020200068
:03000000020036C5
:10003600758121E478FFF6D8FD90002EE4937002D6
:10004600804EC31392D5C31392D1FFA3E493F8B0A5
:10005600D5402130D505E4A393F5A0E420D102A331
:100066009320D507F608DFF3A380D1F208B800F68F
:1000760005A080F2E8030303541F2420F9E854077F
:10008600F8E4D333B80002800333D8FD47F780D8AD
:0600960075A0FF02033516
:10000300EB30E11320E00EC083C08289828A83E053
:10001300D082D08322E3226405700EC083C082891C
:0B002300828A8393D082D08322E722E0
:0100320000CD
:00000001FF
